:0800A6007F6C7E91DEFEDFFCA1
:0100AE00222F
:03000300020006F2
:10000600C0E0C083C082C0D075D000C000C006C0AA
:07001600071200A620B256FC
:10001D00E509B40800504590002BF828287302001C
:10002D004302004802004D02005202005702005CDC
:10003D000200610200667508018021750802801CAE
:10004D0075080380177508048012750805800D75F5
:10005D000806800875080780037508000509E5097D
:06006D0064087002F509B1
:0F007300D007D006D000D0D0D082D083D0E032DA
:10008200D2A8D288D2AFAF08A8077401088002C3F1
:0800920033D8FCF4F58080EE88
:0300000002009A61
:0C009A00787FE4F6D8FD75810902008231
:00000001FF
