:0300E7000109000C
:1000D200538E7F5389F0758A66758CFCC28DD28CE3
:0500E200D2A9D2AF22FB
:050003001200D280FE96
:03000B0002009A56
:10009A00C0E0C0D075D000C000C0070508E50864FC
:1000AA00C8701CAF09A80704088002C333D8FCF43F
:1000BA00F5800509E50964087002F509750800D09C
:0800CA0007D000D0D0D0E032D5
:0300000002000EED
:0C000E00787FE4F6D8FD75810A020055E9
:10001A00020003E493A3F8E493A34003F68001F2F9
:10002A0008DFF48029E493A3F85407240CC8C333E7
:10003A00C4540F4420C8834004F456800146F6DFB6
:10004A00E4800B01020408102040809000E7E47E5F
:10005A00019360BCA3FF543F30E509541FFEE493AB
:10006A00A360010ECF54C025E060A840B8E493A372
:10007A00FAE493A3F8E493A3C8C582C8CAC583CA9D
:10008A00F0A3C8C582C8CAC583CADFE9DEE780BE55
:0100EA000015
:00000001FF
