:0C018A0002080000020A0000020C000045
:0E017B0000007F017ED87D23DDFEDEFCDFFA72
:010189002253
:03000B000200A24E
:1000A200C0E0C0D075D000C000C007050DE50D70DE
:1000B20002050C6432450C7013AF09A807040880CE
:1000C20002C333D8FCF4F580C2C38011E50D646429
:1000D200450C7009D2C37580FFF50CF50DD007D021
:0600E20000D0D0D0E03296
:1000E800D2A8D288D2AAD28AD2AF120168E50A7001
:1000F800FCE50B14601D14601F240270F0AF09A802
:10010800077401088002C333D8FCF4F580C28CD28E
:0C011800C380DA7580FF80D5D28C80D1C6
:03001300020124C3
:10012400C0E0C0D00509E50970020508D39407E5CD
:1001340008648094804006750800750900D0D0D00A
:02014400E032A7
:03000300020146B1
:10014600C0E0C0D0050BE50B7002050AD39403E5A9
:100156000A648094804006750A00750B00D0D0D0E2
:02016600E03285
:10016800538E7F5389F0E4F58A758CB8C28DD28C92
:03017800D2A922E7
:03000000020016E5
:0C001600787FE4F6D8FD75810D02005DD6
:100022000200E8E493A3F8E493A34003F68001F20C
:1000320008DFF48029E493A3F85407240CC8C333DF
:10004200C4540F4420C8834004F456800146F6DFAE
:10005200E4800B010204081020408090018AE47EB3
:10006200019360BCA3FF543F30E509541FFEE493A3
:10007200A360010ECF54C025E060A840B8E493A36A
:10008200FAE493A3F8E493A3C8C582C8CAC583CA95
:10009200F0A3C8C582C8CAC583CADFE9DEE780BE4D
:010196000068
:00000001FF
