:06016300010B00010A007F
:0E01540000007F017ED87D23DDFEDEFCDFFA99
:01016200227A
:03000B0002010EE1
:04010E00C0E0C0D0BD
:100112000509E50970020508C394F4E50894014055
:0901220008B2007508007509001F
:05012B00D0D0D0E0324D
:100143003000057580FFD2C3200005C2C37580FE51
:010153002289
:0300030002009A5E
:10009A00C0E0C0D075D000C005C006C00712015428
:0300AA0020B22958
:1000AD00E50A14600C14600E2402700D750B0180AE
:1000BD0008750B028003750B03050AD3E50A94023C
:0900CD00748094804003750A0060
:0B00D600D007D006D005D0D0D0E0321B
:1000E100120130D2A8D288D2AAD28AD2AFAF0B7E67
:1000F10000EF640170037580FEEF64024E700375BA
:0D01010080FFEF64034E70E512014380E0C3
:10013000538E7F5389F0758ACD758CF8C28DD28C21
:03014000D2A9221F
:0300000002000EED
:0C000E00787FE4F6D8FD758120020055D3
:10001A000200E1E493A3F8E493A34003F68001F21B
:10002A0008DFF48029E493A3F85407240CC8C333E7
:10003A00C4540F4420C8834004F456800146F6DFB6
:10004A00E4800B0102040810204080900163E47EE2
:10005A00019360BCA3FF543F30E509541FFEE493AB
:10006A00A360010ECF54C025E060A840B8E493A372
:10007A00FAE493A3F8E493A3C8C582C8CAC583CA9D
:10008A00F0A3C8C582C8CAC583CADFE9DEE780BE55
:010169000095
:00000001FF
