:1001380008083F065B4F666D7D070110000111003E
:080149007F6C7E91DEFEDFFCFD
:01015100228B
:1000A200C297E4FFEFC3940174809480504DEF70C7
:1000B20008C2C4D2C5D2C6D2C774082510F8E6FE5B
:1000C200E4FDEDC3940874809480500FC2B4EE3303
:1000D2009296EE25E0FED2B40D80E7C295D295E469
:1000E200FDEDC39408748094805009C2B4C296D2C4
:0B00F200B40D80EDC295D2950F80A9DF
:0100FD0022E0
:0E0003007580FED28AD2AAD2AF1200A280FB74
:030013000200FEEA
:1000FE00C0E0C0D075D000C006C00712014920B3C1
:10010E0020D3E5109408748094805015E58025E086
:10011E004401F5800510E510640870057580FEF544
:0A012E0010D007D006D0D0D0E03288
:03000000020016E5
:0C001600787FE4F6D8FD75811102005DD2
:10002200020003E493A3F8E493A34003F68001F2F1
:1000320008DFF48029E493A3F85407240CC8C333DF
:10004200C4540F4420C8834004F456800146F6DFAE
:10005200E4800B0102040810204080900138E47E05
:10006200019360BCA3FF543F30E509541FFEE493A3
:10007200A360010ECF54C025E060A840B8E493A36A
:10008200FAE493A3F8E493A3C8C582C8CAC583CA95
:10009200F0A3C8C582C8CAC583CADFE9DEE780BE4D
:0101480000B6
:00000001FF
